:020000040800F2
:100000002804002001010008F10600089F050008EF
:10001000A3050008A30300081F110008000000004A
:10002000000000000000000000000000CD0C0008EF
:10003000A7030008000000008D0A0008710E0008E8
:100040001B0100081B0100081B0100081B01000820
:100050001B0100081B010008A90300080504000893
:100060001B0100081B0100081B0100081B01000800
:100070001B0100081B0100081B0100081B010008F0
:100080001B0100081B0100081B0100081B010008E0
:100090001B0100081B0100081B0100081B010008D0
:1000A0001B0100081B0100081B0100081B010008C0
:1000B0001B0100081B0100081B0100081B010008B0
:1000C0001B0100081B0100081B0100081B010008A0
:1000D0001B010008D50E0008090F00081B010008CD
:1000E000DD0300081B0100081B010008DFF80CD02D
:1000F00000F0B2F800480047491100082804002029
:100100000648804706480047FEE7FEE7FEE7FEE7B1
:10011000FEE7FEE7FEE7FEE7FEE7FEE7750E0008F6
:10012000ED00000838B5D0E90221491E01EB41017C
:1001300002EBC1014268C1EB011102EB81010268CF
:10014000C1EB011102EB8102D0E9043101EB410165
:1001500003EB81013023A1F5527191FBF3F4174DAC
:100160006C4302EBC41291FBF3F403FB14110092F5
:100170001A2902DB124B1A4400920C2291FBF2F373
:10018000104C6343009C04EBC313009391FBF2F308
:1001900002FB13110C4A08E0491E40F2A324535CF1
:1001A0006343009C04EBC31300930029F4DC014675
:1001B000684600F00BF8009838BD00003F0C0F00B7
:1001C0008051010067C203005C17000810B5006889
:1001D0003C22B0FBF2F302FB1303B0FBF2F00B6026
:1001E000B0FBF2F302FB1303B0FBF2F018224B60FA
:1001F000B0FBF2F302FB1303B0FBF2F0021D8B60C5
:100200000723B2FBF3F403FB1422800040F2B55342
:1002100000F66C308A61B0FBF3F2B0FBF3F403FB41
:100220001400443280084A61C8613B2802D3920717
:1002300000D0401C0022074C13460A61E25C824257
:1002400003D8801A5B1C0B61F8E7401CC8600846A5
:1002500010BD000068170008064C074D06E0E06876
:1002600040F0010394E8070098471034AC42F6D3FD
:10027000FFF740FF741700089417000808B50146FF
:1002800000200090034800900098084400900098D7
:10029000008808BD006C004008B500220092044AA6
:1002A0000092009A02440092009A116008BD00007A
:1002B000006C004000B587B00121042000F0F8FB7D
:1002C0000121480400F0E4FB18208DF81B000420F5
:1002D000ADF8180003208DF81A0006A9204800F098
:1002E000C5F848208DF81B000820ADF81800032041
:1002F0008DF81A0006A91A4800F0B8F84FF4165005
:1003000002900020ADF814000C20ADF8120000207F
:10031000ADF81000ADF80E00ADF80C0002A91148C0
:1003200000F088FE012240F225510E4800F05CFEEC
:100330004FF4A06000F016FA26208DF8040001208A
:100340008DF807008DF8050002208DF8060001A841
:1003500000F0D0F90121034800F003FE07B000BD12
:10036000000801400044004010B5044621460548FD
:1003700000F0D1FE00BF8021024800F0FEFD002801
:10038000F9D010BD0044004070B50446002504E0DB
:10039000605DFFF7E9FF681C85B2605D3028F7D12A
:1003A00070BD00BFFEE7704710B5012000F04AF8AD
:1003B00001280DD10221074800F0E3F828B90648CA
:1003C0000088401C00B204490880022000F034F884
:1003D00010BD0000000C01401600002010B54FF4C5
:1003E000804000F02FF8012808D105480088401C03
:1003F000034908804FF4804000F01EF810BD000053
:100400001400002010B5022000F01CF801280DD1C6
:100410000121074800F0B5F828B906480088401EB9
:1004200000B204490880012000F006F810BD000069
:10043000000C0140160000200149086070470000D0
:1004400014040140014600200022074B1B6803EA08
:100450000102054B14331B680B4013B10AB1012094
:1004600000E0002070470000000401402DE9F04149
:10047000024600250026002000230024002791F8D2
:1004800003C00CF00F0591F803C00CF0100CBCF188
:10049000000F03D091F802C04CEA050591F800C0A6
:1004A000BCF1000F31D0146800202BE04FF0010C9C
:1004B0000CFA00F3B1F800C00CEA03069E4220D10A
:1004C00083004FF00F0C0CFA03F7BC4305FA03FC52
:1004D0004CEA040491F803C0BCF1280F06D14FF098
:1004E000010C0CFA00FCC2F814C00AE091F803C039
:1004F000BCF1480F05D14FF0010C0CFA00FCC2F81A
:1005000010C0401C0828D1D31460B1F800C0BCF161
:10051000FF0F34DD546800202EE000F1080C4FF08E
:10052000010808FA0CF3B1F800C00CEA03069E4279
:1005300021D183004FF00F0C0CFA03F7BC4305FAEE
:1005400003FC4CEA040491F803C0BCF1280F05D168
:1005500000F1080C08FA0CF8C2F8148091F803C0F6
:10056000BCF1480F07D100F1080C4FF0010808FA60
:100570000CF8C2F81080401C0828CED35460BDE8A7
:10058000F0810246002093680B400BB1012000E08F
:10059000002070470AB1016100E04161704700BF6F
:1005A000FEE700BFFEE710B500F07CF900F090FB1D
:1005B00000F0B7FD00F003F8FFF77CFE10BD10B5AA
:1005C0000121080700F064FA0121C80600F060FA72
:1005D000012000F055FA0420FFF750FE0F2820D02C
:1005E000012000F0FDFA00BF412000F0DBFA0028F6
:1005F000FAD04FF4807000F013FB012000F00AFBEA
:1006000000F052FB00F046FB47F6FF7000F032FBB3
:1006100000F040FB00F00AF80F210420FFF73CFE39
:1006200003E000F041FB00F035FB10BD10B58CB0CD
:1006300010480088A0F26C7006900E488078401E2A
:1006400005900C48C07804900A4800790390094846
:100650004079029007488079019001A8FFF762FD78
:10066000A0F5E144204600F0F7FA00F013FB0CB0CF
:1006700010BD00001C00002008B50121042000F07E
:1006800017FA10208DF80300B020ADF80000032009
:100690008DF8020069460B48FFF7E8FE48208DF808
:1006A00003004020ADF8000003208DF802006946E9
:1006B0000448FFF7DBFE012000F006F8002000F000
:1006C0000DF808BD0008014010B50446224610216F
:1006D0000148FFF75FFF10BD0008014010B5044658
:1006E000224620210148FFF755FF10BD00080140B8
:1006F0007047000070B5002100230F22C47804B3B6
:10070000154C246804F4E064C4F5E064210AC1F1E6
:100710000403CA40447804FA03F184781440214366
:1007200009010E4C0678A155047804F01F05012438
:10073000AC4005786D11AD0005F1E025C5F800412C
:1007400009E0047804F01F050124AC40044D06784C
:10075000761145F8264070BD0CED00E000E400E0A5
:1007600080E100E002490143024A11607047000045
:100770000000FA050CED00E070B500240EE0002149
:10078000204600F0F0F8002504E0002000F068F9B1
:10079000681CC5B2802DF8DB601CC4B2082CEEDBEF
:1007A00070BD000008B50121082000F081F9142077
:1007B0008DF8030003208DF802004FF48070ADF82F
:1007C000000069460A48FFF751FE4FF40070ADF88B
:1007D000000069460648FFF749FE0122110204485D
:1007E000FFF7D8FE012251020148FFF7D3FE08BDF2
:1007F000000C014070B50546002415E08020204122
:1008000000EA05024FF400710E48FFF7C3FE012213
:1008100011020C48FFF7BEFE00224FF48071094818
:10082000FFF7B8FE601CC4B2082CE7DB01221102FE
:100830000448FFF7AFFE00224FF480710148FFF734
:10084000A9FE70BD000C014010B5012251020A48FA
:10085000FFF7A0FE012211020748FFF79BFE0022CE
:100860004FF400710448FFF795FE00224FF48071A9
:100870000148FFF78FFE10BD000C014010B50022AB
:100880004FF400710648FFF785FE0122110204486B
:10089000FFF780FE012251020148FFF77BFE10BDE9
:1008A000000C014070B5002406E0002500E06D1C3E
:1008B000B5F57A7FFBD3641CB4F57A7FF5D3FFF7E7
:1008C00071FFAE2000F0BCF8D52000F0B9F8802010
:1008D00000F0B6F8A82000F0B3F83F2000F0B0F820
:1008E000D32000F0ADF8002000F0AAF8402000F07E
:1008F000A7F8A12000F0A4F8C82000F0A1F8DA20A1
:1009000000F09EF8122000F09BF8812000F098F88B
:10091000CF2000F095F8D92000F092F8F12000F0F7
:100920008FF8DB2000F08CF8302000F089F8A4204C
:1009300000F086F8A62000F083F88D2000F080F803
:10094000142000F07DF8AF2000F07AF8FFF714FFD4
:1009500070BD10B50246012000E050430B1EA1F10E
:100960000101FAD110BD70B505460C4645F0B00046
:1009700000F066F8102141EA141000F061F804F06C
:100980000F0000F05DF870BD2DE9F04105460E4600
:100990001746721ED206110E6A1E5206100EFFF77F
:1009A000E2FF002409E0A7F12001134A02EB011144
:1009B000085D00F055F8601CC4B2082CF3DB721E11
:1009C000D206110E6A1E012303EB4202D0B2FFF7DA
:1009D000CAFF00240BE0A7F12001074A02EB011235
:1009E00004F10801505C00F03BF8601CC4B2082C14
:1009F000F1DBBDE8F08100006C1100082DE9F04743
:100A000080460E4617461D46002415E0281B411E51
:100A10000A20FFF79EFFB7FBF0F00A21B0FBF1F2CE
:100A200001FB120000F130093019C1B24A464046BC
:100A3000FFF7AAFF601CC4B2AC42E7DBBDE8F08759
:100A400010B50446FFF700FF7820FFF7D3FE002023
:100A5000FFF7D0FE2046FFF7CDFEFFF70FFF10BDDA
:100A600010B50446FFF7F0FE7820FFF7C3FE4020E4
:100A7000FFF7C0FE2046FFF7BDFEFFF7FFFE10BDEB
:100A8000014908627047000000000E4270470000F4
:100A900029B1064AD2690243044BDA6104E0034AF1
:100AA000D2698243014BDA617047000000100240B6
:100AB00029B1064A92690243044B9A6104E0034A51
:100AC00092698243014B9A61704700000010024016
:100AD00030B500210022002400232D4D6D6805F063
:100AE0000C0121B1042905D0082923D105E0294DA5
:100AF000056022E0274D05601FE0254D6D6805F477
:100B00007012234D6D6805F48034022505EB924286
:100B10001CB9214D554305600BE01D4D6D6805F472
:100B200000351DB11C4D5543056002E0194D55437C
:100B3000056002E0174D056000BF00BF144D6D68F1
:100B400005F0F0010909154D6B5C0568DD40456055
:100B50000F4D6D6805F4E061090A104D6B5C456846
:100B6000DD4085600A4D6D6805F46051C90A0B4D82
:100B70006B5C4568DD40C560054D6D6805F440411E
:100B8000890B074D6B5CC568B5FBF3F5056130BD9E
:100B90000010024000127A0000093D000000002011
:100BA0001000002010B501460022002300204A1149
:100BB000012A02D1094C236806E0022A02D1074C1F
:100BC000236A01E0054C636A01F01F02012494408E
:100BD0001C400CB1012000E0002010BD00100240BC
:100BE00000210B4A11700A4A203A82F8201001288D
:100BF00002D0042808D103E00121054A117004E065
:100C00000521034A117000E000BF00BF70470000DB
:100C10002010024001490860704700003C04424235
:100C20000249096A0143014A1162704700100240FB
:100C30000348008840F01000014908807047000018
:100C400004280040034800884FF6EF71084001492E
:100C5000088070470428004000B50246FFF7E8FF0F
:100C6000100C03490880091D0A80FFF7EBFF00BD47
:100C70001828004000B50246FFF7DAFFC2F3034030
:100C800003490880091D0A80FFF7DCFF00BD000052
:100C90000828004000BF0348008800F0200000281A
:100CA000F9D0704704280040074800884FF6F771D4
:100CB00008400549088000BF0348008800F008008C
:100CC0000028F9D070470000042800407047000059
:100CD00000B587B001210420FFF7EAFE0121880357
:100CE000FFF7E6FE18208DF81B004FF40070ADF8FA
:100CF000180003208DF81A0006A92148FFF7B6FB5B
:100D000048208DF81B004FF48060ADF818000320D8
:100D10008DF81A0006A91A48FFF7A8FB4FF41650E1
:100D200002900020ADF814000C20ADF81200002055
:100D3000ADF81000ADF80E00ADF80C0002A9114896
:100D400000F078F9012240F225510E4800F04CF9EC
:100D50004FF4A060FFF706FD25208DF80400012068
:100D60008DF807008DF805008DF8060001A8FFF743
:100D7000C1FC0121034800F0F4F807B000BD0000F9
:100D8000000801400038014010B500F001F810BD26
:100D90000CB50020019000903348006840F480308A
:100DA0003149086000BF3048006800F4003000900E
:100DB0000198401C0190009818B90198B0F5A06FF7
:100DC000F1D12948006800F4003010B101200090F2
:100DD00001E0002000900098012843D123480068DA
:100DE00040F01000214908600846006820F0030028
:100DF00008600846006840F0020008601A48406831
:100E0000194948600846406848600846406840F410
:100E1000806048600846406820F47C1048600846BE
:100E2000406840F4E81048600846006840F0807070
:100E3000086000BF0C48006800F000700028F9D07E
:100E40000948406820F003000749486008464068A8
:100E500040F00200486000BF0348406800F00C000A
:100E60000828F9D10CBD000000100240002002400B
:100E70007047000010B51348006840F001001149A8
:100E8000086008464068104908400E494860084616
:100E900000680E4908400B4908600846006820F4C5
:100EA000802008600846406820F4FE0048604FF447
:100EB0001F008860FFF768FF4FF00060044908607A
:100EC00010BD0000001002400000FFF8FFFFF6FE1A
:100ED00008ED00E010B52021084800F04EF860B1A0
:100EE000064800F013F9064908700120054908700A
:100EF00040F22551014800F025F810BD00380140AE
:100F00001A0000201B00002010B540F225510C48AB
:100F100000F040F898B10A4800F0F8F8C4B2224650
:100F200001210846FFF730FD41220A210320FFF787
:100F30002BFD40F22551024800F004F800BF10BD1F
:100F40000044004010B50022002340F66A14A1427C
:100F500000D100BF0A1201249440A3B2DC430480F4
:100F600010BD21B1828942F40052828104E082895D
:100F70004DF6FF731A408281704702460020B1F59A
:100F8000007F00D100BF13880B400BB1012000E0AF
:100F90000020704770B50246002400230025002081
:100FA00040F66A16B14200D100BFC1F3421501F00C
:100FB0001F03012606FA03F3012D02D1968933405F
:100FC00006E0022D02D1168A334001E0968A3340B2
:100FD0000C12012606FA04F41688344013B10CB141
:100FE000012000E0002070BDF0B50346002400267B
:100FF0000025002040F66A17B94200D100BF18460C
:10100000C1F3421401F01F06012707FA06F5012C6F
:1010100001D10C3004E0022C01D1103000E014307A
:101020001AB107682F43076002E00768AF43076003
:10103000F0BD00002DE9F04786B005460E460024BD
:10104000A24600BFA1460027B08900B100BF2F46CD
:101050002C8A4CF6FF700440F08804432C82AC8943
:101060004EF6F3100440B088318908437189084373
:101070000443AC81AC8A4FF6FF400440B08904437E
:10108000AC8201A8FFF724FD1F48874202D1DDF89A
:1010900010A001E0DDF80CA0A88900F4004040B1E8
:1010A0000AEBCA0000EB0A1031684900B0FBF1F806
:1010B00007E00AEBCA0000EB0A1031688900B0FBB8
:1010C000F1F86420B8FBF0F004012009642101FB71
:1010D0001089A88900F4004040B1322000EBC9001B
:1010E000B0FBF1F000F00700044308E0322000EB11
:1010F00009106421B0FBF1F000F00F0004432C81D3
:1011000006B0BDE8F087000000380140014688883D
:10111000C0F308007047C1F308028280704700BF27
:10112000FEE710B5FFF7A8FA10BD02E008C8121FCD
:1011300008C1002AFAD170477047002001E001C1C0
:10114000121F002AFBD17047FFF72DFAFFF7B2F804
:1011500005A0FFF719F902230C220E210320FFF747
:101160004DFC00BFFEE70000420000000000000050
:10117000000000000000000000000000000000F877
:1011800000000000000000333000000000100C06DA
:10119000100C0600000000000000000040C0784075
:1011A000C0784000043F04043F040400007088FC41
:1011B00008300000001820FF211E0000F008F00099
:1011C000E018000000211C031E211E0000F008880A
:1011D000700000001E2123241927211010160E0074
:1011E000000000000000000000000000000000E01F
:1011F0001804020000000007182040000002041834
:10120000E00000000040201807000000404080F08F
:10121000804040000202010F01020200000000F0C5
:10122000000000000101011F010101000000000099
:101230000000000080B0700000000000000000000E
:101240000000000000010101010101010000000097
:10125000000000000030300000000000000000002E
:1012600080601804006018060100000000E010080B
:101270000810E000000F102020100F00001010F8E0
:10128000000000000020203F20200000007008081F
:10129000088870000030282422213000003008889F
:1012A000884830000018202020110E000000C020C7
:1012B00010F8000000070424243F240000F80888E8
:1012C000880808000019212020110E0000E0108875
:1012D00088180000000F112020110E0000380808A7
:1012E000C83808000000003F0000000000708808B7
:1012F00008887000001C222121221C0000E0100838
:101300000810E0000000312222110F00000000C090
:10131000C00000000000003030000000000000802D
:10132000000000000000806000000000000080401D
:101330002010080000010204081020004040404036
:101340004040400004040404040404000008102089
:1013500040800000002010080402010000704808CE
:101360000808F0000000003036010000C030C82836
:10137000E810E0000718272423140B000000C038F1
:10138000E0000000203C23020227382008F888886B
:1013900088700000203F202020110E00C030080877
:1013A00008083800071820202010080008F808084E
:1013B0000810E000203F202020100F0008F8888847
:1013C000E8081000203F20202320180008F8888813
:1013D000E8081000203F200003000000C03008088B
:1013E0000838000007182020221E020008F8080014
:1013F0000008F808203F210101213F20000808F8DB
:10140000080800000020203F2020000000000808FD
:10141000F8080800C08080807F00000008F888C0BD
:1014200028180800203F20012638200008F808006E
:1014300000000000203F20202020300008F8F800A5
:10144000F8F80800203F003F003F200008F830C0B7
:101450000008F808203F200007183F00E0100808A7
:101460000810E0000F10202020100F0008F80808D6
:101470000808F000203F210101010000E0100808E9
:101480000810E0000F18242438504F0008F888880E
:1014900088887000203F2000030C302000708808EE
:1014A000080838000038202121221C00180808F8FC
:1014B000080818000000203F2000000008F808007D
:1014C0000008F808001F202020201F00087888004E
:1014D00000C83808000007380E010000F80800F8BE
:1014E0000008F800033C0700073C03000818688068
:1014F0008068180820302C03032C30200838C800DE
:10150000C83808000000203F20000000100808082C
:10151000C83808002038262120201800000000FECE
:10152000020202000000007F40404000000C30C07A
:1015300000000000000000010638C00000020202A6
:10154000FE000000004040407F0000000000040258
:101550000202040000000000000000000000000083
:101560000000000080808080808080800002020473
:10157000000000000000000000000000000080806B
:10158000808000000019242222223F2008F80080D9
:1015900080000000003F112020110E00000000809C
:1015A00080800000000E112020201100000000802B
:1015B0008088F800000E112020103F20000080805D
:1015C00080800000001F222222221300008080F071
:1015D000888888180020203F20200000000080809C
:1015E00080808000006B94949493600008F80080E1
:1015F00080800000203F210000203F20008098983C
:10160000000000000020203F20200000000000809B
:101610009898000000C08080807F000008F80000DB
:1016200080808000203F24022D302000000808F830
:10163000000000000020203F2020000080808080EB
:1016400080808000203F20003F20003F808000807D
:1016500080800000203F210000203F20000080808B
:1016600080800000001F202020201F00808000803C
:101670008000000080FFA12020110E0000000080EB
:1016800080808000000E112020A0FF8080808000DC
:101690008080800020203F21200001000000808009
:1016A000808080000033242424241900008080E0FE
:1016B000808000000000001F2020000080800000CB
:1016C00000808000001F202020103F2080808000AC
:1016D0000080808000010E300806010080800080BC
:1016E000008080800F300C030C300F0000808000E1
:1016F000808080000020312E0E312000808080000C
:101700000080808080818E701806010000808080BB
:10171000808080000021302C222130000000000059
:10172000807C020200000000003F404000000000FA
:10173000FF00000000000000FF0000000002027C2B
:10174000800000000040403F000000000006010152
:101750000202040400000000000000001F1C1F1E05
:101760001F1E1F1F1E1F1E1F1F1D1F1E1F1E1F1F90
:101770001E1F1E1F941700080000002024000000F8
:101780002A110008B81700082400002004040000F3
:101790003A110008000000000102030401020304E2
:1017A0000607080902040608000000000000000007
:0817B000E7070719102C3900AE
:0400000508000101ED
:00000001FF
